S00E000056656C6861322E73726563F4
S11300000C949E0E0C94BB0E0C94BB0E0C94BB0E65
S11300100C94BB0E0C94BB0E0C94BB0E0C94BB0E38
S11300200C94BB0E0C94BB0E0C94BB0E0C94BB0E28
S11300300C94BB0E0C94BB0E0C94BB0E0C94BB0E18
S11300400C94BB0E0C94BB0E0C94BB0E0C94BB0E08
S11300500C94BB0E0C94BB0E0C94BB0E0C94BB0EF8
S11300600C94BB0E0C94BB0E0000000000000000BA
S1130070000000000000000000000000000000007C
S1130080000000000000000000000000000000006C
S1130090000000000000000000000000000000005C
S11300A0000000000000000000000000000000004C
S11300B0000000000000000000000000000000003C
S11300C0000000000000000000000000000000002C
S11300D0000000000000000000000000000000001C
S11300E0000000000000000000000000000000000C
S11300F000000000090009080000000000000000E2
S113010000000000000000000000000000000000EB
S113011000000000000000000000000000000000DB
S113012000000000000000000000000000000000CB
S113013000000000000000000000000000000000BB
S1130140000000000000000000000000000009069C
S11301500006000000000000000000000000000095
S1130160000000000000000000000000000000008B
S11301700000090009060000000000000000000063
S1130180000000000000000000000000000000006B
S1130190000000000000000000000000000000005B
S11301A0000000000000000000000000000000004B
S11301B0000000000000000000000000000000003B
S11301C0000000000000000000000000000000002B
S11301D0000000000000000000000000000000001B
S11301E0000000000000000000000000000000000B
S11301F000000000000000000000000000000000FB
S113020000000000000000000007000004070000D8
S113021000000800000804000003020000000003BE
S113022000000000000000000000000000000000CA
S113023000000000030200000000030000030203AA
S113024000000000000000000000000000000000AA
S1130250000000000000000000000000000000009A
S1130260000000000000000000000000000000008A
S11302700000000000000000000000000008000072
S11302800000090800000000000000000000000059
S1130290000000000000000000000000000000005A
S11302A00000000000000000000000070007040038
S11302B00000000007000704000000030200000320
S11302C0000000000000000000000000000700071C
S11302D00000040000000606000002000000000008
S11302E0000000000000000000000000000000000A
S11302F000000000000000000000000007000704E8
S113030000000000000000000000000000000000E9
S113031000000000000000000000000000000000D9
S113032000000000000000000000000000000000C9
S113033000000000000000000000000000000000B9
S113034000000000000000000000000000000000A9
S11303500000000000000000000000000000000099
S11303600000000000000000000000000000000089
S11303700000000000000000000000000800060665
S11303800000000000000000000000000000000069
S11303900000000000000000000000000000000059
S11303A00000000000000000000000000000000049
S11303B00000000000000000000000000000000039
S11303C00000000000000000000000000000000029
S11303D00000000000000000000000000000000019
S11303E00000000000000000000000000000000009
S11303F000000000000000000000000000000000F9
S113040000000000000000000000000000000000E8
S113041000000000000000000000000000000000D8
S113042000000000000000000000000000000800C0
S113043000040400000000000000000000000000B0
S113044000000000000000000000000000000000A8
S11304500000000000000000000000000000000098
S11304600000000000000000000000000000000088
S11304700000000000000000000000000000000078
S11304800007080700000000000000000000000052
S11304900000000000000000000000000000000058
S11304A00000000000000000000000000000000048
S11304B00000000000000000000000000000000038
S11304C00000000000000000000000000000000028
S11304D00000000000000000000000000000000018
S11304E00000000000000000000000000000000008
S11304F000000000000000000000000000000000F8
S113050000000000000000000000000000000009DE
S113051000000009080000000000000000000000C6
S113052000000000000000000000000008000606B3
S113053000000000000000000000000000000000B7
S1130540000000000000000900090800000000008D
S11305500000000004000001000000010000000091
S11305600000000000000600000600010000000476
S11305700000010004000000000000000000000072
S11305800000000000000000000000000000000067
S11305900000000300010000000300000000000050
S11305A00000000000000000000000000000000047
S11305B00000000000000000000000000000000037
S11305C00000000000000000000000000000000027
S11305D0000000000000000000000000000008000F
S11305E000040400000006000003000300000000F3
S11305F000000000000000000007000008070000E1
S113060000060600030000000000040300040000CC
S113061000000000000000000000000000000000D6
S113062000000000000000000000000000000000C6
S113063000000000000000000000000000000000B6
S113064000000000000000000000000000000000A6
S1130650000000000000000000000000070000048B
S11306600004000000000000000000000000000082
S11306700000000000000000000000000000000076
S11306800000000000000000000000000000000066
S11306900000000000000000000000000000000056
S11306A00000000000000000000000000000000046
S11306B00000000000000700000807000000000020
S11306C00000000000000000000000000000000026
S11306D00000000000000000000000000000000016
S11306E00000000000000000000000000000000006
S11306F000000000000000000000000000000000F6
S113070000000000000000000000000000000000E5
S113071000000800060800000000000900090600A7
S113072000000000000000000000000000000000C5
S113073000000000000000000000020100000000B2
S113074000010000000000000000000002010000A1
S11307500001000000020100000000000100000090
S11307600000000000000000000000000000000085
S11307700000000000000000000000000000000075
S11307800000000000000000000000000000000065
S11307900000000000000000000000000000000055
S11307A00000000000000000000000000000000045
S11307B00000070000040700000000000000000023
S11307C00000000000000000000000000000000025
S11307D00000000000000000000000000000000015
S11307E00000000000000000000000000000000005
S11307F000000000000000000000000000000000F5
S113080000000000000000000000000000000000E4
S113081000000000000000000000000000000000D4
S113082000000000000000000000000000020100C1
S113083000000000010000000000000000000000B3
S113084000000000000000000000000000000000A4
S1130850000000000900090000060000000900096A
S11308600000060000000000000000000009000075
S11308700009000006000000000000000000020162
S11308800001000000000000000000000000000063
S1130890000000000000000000040400020000004A
S11308A00000000000000000000000000000000044
S11308B0000000000000000000000000000800002C
S11308C00000000807000000000000000000000015
S11308D00000000000000000000000000000000014
S11308E00000000000000000000000000000000004
S11308F000000000000000000000000000000000F4
S113090000000000000000000000080006080000CD
S113091000000000000000000000000000000000D3
S113092000000000000000000000000000000000C3
S113093000000000000000000000000000000000B3
S113094000000000000000000000000000000000A3
S11309500000000000000000000000000000000093
S11309600000000000000000000000000000000083
S11309700000000000000000000000000000000073
S1130980000000000000000000000000000006005D
S11309900003000300000000000008000608000037
S11309A0000000090009060000000000000000002B
S11309B00000000000000000000000000000000033
S11309C00000080800000000000100000000000012
S11309D0000000000201000000010000000201000C
S11309E00000000002000000000000000000000001
S11309F000000000000000000000000000000000F3
S1130A0000000000000000000000000000000000E2
S1130A1000000000000000000000000000000000D2
S1130A2000000000000000000000000000000000C2
S1130A3000000000000000000000000000000000B2
S1130A4000000000000000000000000000000000A2
S1130A500000000000000000000000000000000092
S1130A600000000000000000000000000000000082
S1130A700000000000000000000000000000000072
S1130A800000000000000000000000000000000062
S1130A900000000000000000000000000000000052
S1130AA00000000000000000000000000000000042
S1130AB00000000000000000000000000000000032
S1130AC00000000000000007000000000001000119
S1130AD00000000000000000000000000000000012
S1130AE00000000000000000000000000000000002
S1130AF000000000000000000000000000000000F2
S1130B0000000000000000000000000000000000E1
S1130B1000000000000000000000000000000000D1
S1130B2000000602000002000000000000000000B7
S1130B3000000000000000000000000000090000A8
S1130B400009000006000000000000000000000092
S1130B500000000000000000000000000000000091
S1130B600000000000000000000000000000000081
S1130B700000000000000000000000000000000071
S1130B800000000000000000000708070000080043
S1130B900000000807000000000000000000000042
S1130BA00000000000000000000700000000020236
S1130BB00000060300000300000000030600000319
S1130BC00000000000000000000000000000000021
S1130BD00000000000000000000000000000000011
S1130BE00000000000000000000000000000000001
S1130BF000000000000000000000000000000000F1
S1130C0000000000000000000000000000000000E0
S1130C1000000000000000000000000000000000D0
S1130C2000000000000000000000000000000000C0
S1130C300000090009000004000007000000030090
S1130C400700000000000000000000000700000092
S1130C500300070000000600040000060000000076
S1130C600000000000000004060004000000000072
S1130C700000000000000000000000000000000070
S1130C800000000000000000000008000000000058
S1130C900208000000000000000000000000000046
S1130CA00000000000000000000000000000000040
S1130CB00000000000000000000000000000000030
S1130CC00000000000000000000007000000030016
S1130CD003000800000000000208000000000000FB
S1130CE00000000000000000000000000000000000
S1130CF000000000000009000000000009020000DC
S1130D0007000000030003000800000000020200C6
S1130D1000000000000000000000000000000000CF
S1130D2000000000000000000000000000000000BF
S1130D3000000000000000000000000000000000AF
S1130D40000000000000000000000000000000009F
S1130D50000000000000000000000000000000008F
S1130D60000000000000000000000000000000007F
S1130D70000000000000000000000000000000006F
S1130D80000000000000000000000000000000005F
S1130D900000000000000000080000000000020243
S1130DA0000000000000000000000000000000003F
S1130DB00000000000000000000000000000060029
S1130DC00400000600000000000000000000000015
S1130DD0000000000000000000000000000000000F
S1130DE000000000000000000000000000000000FF
S1130DF000000000000000000000000000000000EF
S1130E0000000000000000000000000000000000DE
S1130E1000000000000000000600040000040000C0
S1130E2000000000000000000000000000000000BE
S1130E3000000000000000000000000000000000AE
S1130E40000000000000000000000000000000009E
S1130E50000000000000000000000000000000008E
S1130E60000000000000000000000000000000007E
S1130E700802000000000200000000000000000062
S1130E80000000000000000000000000000000005E
S1130E90000000000000000000000000000000004E
S1130EA0000000000000000000000000000000003E
S1130EB00007000004070000000008000008040008
S1130EC0000808000000000300000000000000000B
S1130ED00000000000000000000000000302000009
S1130EE000000200000302030000000000000000F4
S1130EF000000000000000000000000000000000EE
S1130F0000000000000000000000000000000000DD
S1130F1000000000000000000000000000000000CD
S1130F2000000000000000000000000004000001B8
S1130F3000000001000000000000000000000000AC
S1130F400000000000000000000008000008040089
S1130F50000000000000000000000000000000008D
S1130F60000000000000000000000000000000007D
S1130F70000000000000000000000000000000006D
S1130F80000000000000000000000000000000005D
S1130F90000000000000000000000000000000004D
S1130FA00009000900000000000300000000000028
S1130FB0000000000000000000000000000000002D
S1130FC0000000000000000000000000000000001D
S1130FD0000000000000000000000000000000000D
S1130FE000000000000000000000000000000000FD
S1130FF000000000000000000000000000000000ED
S113100000000000000000000000000000000000DC
S113101000000000000000000000000000000000CC
S113102000000000000000000000000000000000BC
S113103000000000000000000000000000000000AC
S1131040000000000000000000000000000000009C
S1131050000000000000000000000000000000008C
S1131060000000000000000000000000000000007C
S1131070000000000000000000000000000000006C
S11310800000000000000000000000000800000054
S11310900000090800000009000000090800000021
S11310A0000000000000000900000000000202002F
S11310B0000000000000000000000000000000002C
S11310C00000000000000000000004010001000016
S11310D000000002040002000000000000070007F6
S11310E000000400000000000000000000000000F8
S11310F000000000000000000000000000000000EC
S113110000000000000000000000000000000000DB
S113111000000000000000000000000000000000CB
S113112000000000000000000000000000000000BB
S113113000000000000000000000000000000000AB
S1131140000000000000000000000000000000009B
S1131150000000000000000000000000000000008B
S11311600000000204000200000000000000000073
S1131170000000000000000000000000000000006B
S1131180000000000000000000000000000000005B
S1131190000000000000000000000000000000004B
S11311A00000000000000000000000000302000036
S11311B00000000200000000000000000000000029
S11311C0000000000000000000000000000000001B
S11311D000000000080006060000000000000000F7
S11311E000000000000000000000000000000009F2
S11311F000090800000000000000000004000001D5
S113120000000001000000000000000000000400D5
S113121000010001000000040000010001000000C2
S113122000000000000000000000000000000000BA
S113123000000000000000000000000009000000A1
S11312400000090800000000000000000000000089
S1131250000000000000000000000000000000008A
S1131260000000000000000000000000000000007A
S1131270000000000000000000000000000000006A
S11312800000000000000000000000000009000051
S11312900000000908000000000000000000000039
S11312A0000000000000000000000000000000003A
S11312B0000000000000000000000306000003001E
S11312C0000000000000000000000000000000001A
S11312D0000000000000000000000000000000000A
S11312E000000000000000000000000000000000FA
S11312F000000000000000000000000000000000EA
S113130000000000000000000000000000000000D9
S113131000000000090000000000090800000009A6
S1131320000000090800000000000000000000099F
S11313300000000000090800000000000000000098
S11313400000000000000000000000000000000099
S1131350000004010001000000000002040002007B
S11313600000000000000000000000000000000079
S11313700000000000000000000000000000000069
S11313800000000000000000000000000000000059
S11313900000000000000000000000000000000049
S11313A00000000000000000000000000000000039
S11313B00000000000000302000003000000000021
S11313C00000000000000000000000000000000019
S11313D00000000000000000000000000000000009
S11313E000000000000000000000000000000000F9
S11313F000000000000000000000000000000000E9
S113140000000000000000000000000000000006D2
S113141000060000030000000000000000000000BF
S113142000000000000000000000000000000000B8
S113143000000000000000000000000000000000A8
S11314400000000000000000000000000000000098
S11314500000000000000000000000000000000088
S11314600000000600070600000000000700040456
S11314700000000302000003000000000000000060
S1131480000000000007000700000400000006063A
S11314900000020000000000000000000000000046
S11314A00000000000000000000000000000000038
S11314B00000000000000000000000000000000028
S11314C00000000000000000000000000000000018
S11314D000000000000000070000000900070000F1
S11314E000000000000000000000000000000000F8
S11314F000000000000000000000000006000900D9
S113150000060000000900040000040000000000C0
S113151000000000000900000009000006000000AF
S113152000000000000002010001000000000000B3
S113153000000000000000000000000000000000A7
S1131540000404000200000000000000000000008D
S11315500000000000000000000000000201000084
S11315600001000000000000000000000000000076
S11315700000000000000000000000000000000067
S11315800000000000000000000000000000000057
S11315900000000000000000000000000000000047
S11315A00000000000000000000000000000000037
S11315B00000000000000000000000000000000027
S11315C00000000000000000000000000000000017
S11315D00000000000000000000000000000000007
S11315E000000000000000000000000000030203EF
S11315F000000000000000000000000000000000E7
S113160000000000000000000000000000000000D6
S113161000000000000000000000000000000000C6
S113162000000000000000000000000000000000B6
S1131630000000000000000000000000000006069A
S11316400000020000000000000000000000000094
S11316500000000000000000000000000000000086
S11316600000000000000000000000000000000076
S11316700000000000000000000000000000000066
S11316800000000000000000000000000000000056
S11316900000000000000000000000000000000046
S11316A00000000000000000000000000000000036
S11316B00000000000000000000000000000000026
S11316C00000000000000000000000000000000016
S11316D00000000000000000000000000000000006
S11316E000000000000000000000000000000000F6
S11316F000040400020000000000000000000000DC
S113170000000000000000000000000000000000D5
S113171000000000000000000000000000000000C5
S113172000000000000000000000000000000000B5
S113173000000000000000000000000000000000A5
S11317400000000000000000000000000000000095
S11317500000000000000000000000000000000085
S11317600000000000000000000000000000000075
S11317700006030003000000000000000000000059
S11317800000000000000000000000000000000055
S1131790000000000000080000040400000006002F
S11317A0000300030000000000000000000000002F
S11317B00007000008070000000603000300000003
S11317C00000060300030000000000000000000009
S11317D00000000000000000000000000000000005
S11317E000000000000000000000000000020100F2
S11317F000000002000000000000000000000000E3
S113180000000000000000000000000000000000D4
S113181000000000000000000000000000000000C4
S113182000000000000000000000000000000000B4
S11318300007080700000700000000080700000078
S11318400000000000000000000000000000000094
S11318500007000000000807000006020000020064
S11318600000000306000003000000000000000068
S11318700000000000000000000000000000000064
S11318800000000000000000000000000000000054
S11318900000000000000000000000000000000044
S11318A00000000000000000000000000000000034
S11318B00000000000000000000000000000000024
S11318C00000000000000000000000000000000014
S11318D00000000000000000000000000000000004
S11318E000000000000000000000000000000000F4
S11318F000000000000000000000000401000100DE
S113190000000000000000000000000000000000D3
S113191000000000000000000000000000000004BF
S113192000040100000000000000000000000000AE
S113193000000000000000000000000000000000A3
S11319400000000000000000000000000000000093
S11319500000000000000000000000000000000083
S11319600000000000000000000000000000000073
S1131970000000000000000000020100010000005F
S11319800000000000000000000000000000000053
S11319900000000000000000000000000000000043
S11319A00000000000000000000000000000000033
S11319B00000000000000000000000000000000023
S11319C00000000000000000000000000000000013
S11319D00000000000000000000000000000000003
S11319E000000000000000000000000000000000F3
S11319F000000000000000000000000000000000E3
S1131A0000000000000000000000000000000000D2
S1131A10000000000007000704070700000008009A
S1131A200808040800030200000300030300000088
S1131A30000000000000000302070000040700008B
S1131A400606000002000606000302070003040065
S1131A500000030202000202000000000007000769
S1131A600407070000000000000000000000000957
S1131A70000909090600000900000909090300001A
S1131A800000000000000007000007000001070735
S1131A90040000010009000908040004090000040E
S1131AA00004000006070003080700000000080007
S1131AB008080608000000090009090906000000DA
S1131AC000000000000002010000000900090600F7
S1131AD000000000000000000201000100000101FC
S1131AE000060600000009000606020100010009C4
S1131AF000000604040002000004040000030200C5
S1131B00000300030300000900000909090702019A
S1131B1000000009000906000000000000000000A9
S1131B200000000000000000000800080000000899
S1131B300308000909000009000908030301000063
S1131B400300000300030600000308070000000070
S1131B500000000000000000070600040300070066
S1131B600400060004000404000807000000030247
S1131B700300000000000000000000070700000050
S1131B800307070008000200020002020000070326
S1131B90000303000300040406000400040000031F
S1131BA002070000040700070000070000090707F8
S1131BB0020100010000010100020702000000020E
S1131BC0000200000000000000000000000000000F
S1131BD000000000040100010000000908030101E5
S1131BE001000001000007070007000008070000CB
S1131BF006060000080006060400000100090009AA
S1131C00080404000100000004040009090000099C
S1131C1000090800000000000000000004010001A9
S1131C20000000090800000000000000000004019A
S1131C300101000100000002040202000200000091
S1131C40000302070003040000060006000001066A
S1131C500006020100010009000006030309000058
S1131C600300000300000000000000000007010161
S1131C700100000100000401010100010000000056
S1131C80000000000000000003030603000300003E
S1131C900000000808000808070000000607000309
S1131CA00807000404000800000404000003060000
S1131CB00003080700000000000000000000070700
S1131CC000070000080700020602020002000000EC
S1131CD003030603000300000000000000000000EE
S1131CE000000003020700090409080300010100C1
S1131CF003030601020100070009040706070107A0
S1131D000000020107010008070600040302070996
S1131D100309080000030903040306010003000982
S1131D200809040707000909000702010601000366
S1131D3008070005050505010505050511241FBE55
S1131D40CFEFD8E0DEBFCDBF11E0A0E0B1E0E6EA1E
S1131D50F8E202C005900D92A033B107D9F721E053
S1131D60A0E3B1E001C01D92A636B207E1F70E94DC
S1131D701A140C9451140C940000CF92DF92EF9239
S1131D80FF928091390180FF06C0C12CD12C7601CD
S1131D906894E3F803C0C12CD12C760181FF02C002
S1131DA06894E2F880913A0180FF02C06894D3F805
S1131DB081FF02C06894D2F880913B0180FF02C089
S1131DC06894C3F881FF02C06894C2F880913C0112
S1131DD080FF02C06894E1F881FF02C06894E5F8CE
S1131DE080913D0180FF02C06894D1F881FF02C058
S1131DF06894D5F880913E0180FF02C06894C1F8D0
S1131E0081FF02C06894C5F880913F0180FF02C041
S1131E106894E0F881FF02C06894E4F8809140017E
S1131E2080FF02C06894D0F881FF02C06894D4F89F
S1131E308091410180FF02C06894C0F881FF02C014
S1131E406894C4F88BB1887F8BB928E181E090E075
S1131E50A0E0B0E0AC01BD014C215D216E217F21E9
S1131E60452B462B472B11F0589A01C05898000077
S1131E705A9A00005A98880F991FAA1FBB1F215015
S1131E8049F7599A000000005998FF90EF90DF90AD
S1131E90CF9008958F70806480937C000000EAE7FF
S1131EA0F0E0808180648083808186FDFDCF809115
S1131EB07800909179000895AF92BF92DF92EF92EB
S1131EC0FF920F931F93CF93DF9302E411E084E515
S1131ED091E0F80111921192E817F907D9F7689483
S1131EE0FF24F3F8C2E4D1E05B9880E00E944A0F3B
S1131EF02C813D81820F931F9D838C8383E00E94FC
S1131F004A0F2E813F81820F931F9F838E8384E02B
S1131F100E944A0F28853985820F931F99878887E5
S1131F2085E00E944A0F2C853D85820F931F9D8773
S1131F308C875B9A81E00E944A0F2A853B85820F39
S1131F40931F9B878A8782E00E944A0F28893989D8
S1131F50820F931F998B888B83E00E944A0F2881FC
S1131F603981820F931F9983888384E00E944A0FEA
S1131F702A813B81820F931F9B838A8385E00E9481
S1131F804A0F2E853F85820F931F9F878E87FA9471
S1131F90F110AACFA0E3B1E0E4E5F1E00F2EF0E008
S1131FA0AF2EF1E0BF2EF02D0F2EF9E3EF2EF1E06E
S1131FB0FF2EF02DDD24D3949801E80188819981C6
S1131FC099230CF4079695958795959587959595FE
S1131FD08795E901998388830E5F1F4F2C912223F3
S1131FE079F02081318128173907C4F41C92E50166
S1131FF028813981AC01421B530B518340830EC0AD
S113200020813181821793074CF4ED01D882E501D8
S113201028813981280F391F31832083BF01E501CD
S1132020299139915E0140815181420F531F481714
S113203059072CF4AC01421B530B51834083EB0131
S113204048815981421B530B8417950724F4820F4E
S1132050931F9983888311963296AE15BF0509F0B4
S1132060ABCFDF91CF911F910F91FF90EF90DF9055
S1132070BF90AF900895CF93DF938AB18F608AB9F0
S11320808BB1807F8BB980E090E0E0911201F091F8
S11320901301E80FF91F1082019689309105A9F701
S11320A00E94BD0E17B880E480937C0086E880937C
S11320B07A0010927B008FE380937E005B9880E02F
S11320C00E944A0FC2E4D1E09D838C8383E00E9486
S11320D04A0F9F838E8384E00E944A0F99878887E2
S11320E085E00E944A0F9D878C875B9A81E00E945D
S11320F04A0F9B878A8782E00E944A0F998B888BBC
S113210083E00E944A0F9983888384E00E944A0FE7
S11321109B838A8385E00E944A0F9F878E87FE01F6
S1132120C0E0D1E0A4E5B1E044E551E081919191B2
S113213029913991821B930B8D939D93E417F50795
S1132140A9F7DF91CF910895FF920F931F93CF9337
S1132150DF9380E090E0E0911201F0911301E80F29
S1132160F91F1082019689309105A9F70E94BD0ECE
S1132170C0E0D0E0FF24F39400E010E0E09112010D
S1132180F0911301EC0FFD1FF0820E94BD0E2FE7AA
S113219088E391E0215080409040E1F700C00000C6
S11321A00E945C0F802F912FE0911201F091130196
S11321B0E80FF91F1082019689309105A9F70E9452
S11321C0BD0E2FE788E391E0215080409040E1F775
S11321D000C000000E945C0F2196C930D10571F641
S11321E0C0E0D0E06894FF24F1F800E010E0E09152
S11321F01201F0911301EC0FFD1FF0820E94BD0E3D
S11322002FE788E391E0215080409040E1F700C03F
S113221000000E945C0F802F912FE0911201F09139
S11322201301E80FF91F1082019689309105A9F76F
S11322300E94BD0E2FE788E391E02150804090403A
S1132240E1F700C000000E945C0F2196C930D1055F
S113225071F6DF91CF911F910F91FF900895EF9246
S1132260FF920F931F93CF93DF93F62EC82FD0E0E6
S1132270E0911201F0911301EC0FFD1FE08003E0E7
S113228010E0E0911201F0911301EC0FFD1FF082B8
S11322900E94BD0E2FEF80E792E0215080409040D5
S11322A0E1F700C000000E945C0FE0911201F09180
S11322B01301EC0FFD1FE0820E94BD0E2FEF80E79B
S11322C092E0215080409040E1F700C000000E945D
S11322D05C0F01501109A9F680911201909113012C
S11322E0C80FD91FF8820E94BD0E0E945C0FDF91B7
S11322F0CF911F910F91FF90EF9008954F925F92AD
S11323006F927F928F929F92AF92BF92CF92DF9201
S1132310EF92FF920F931F93CF93DF93CDB7DEB766
S113232029970FB6F894DEBF0FBECDBF4B015C01F9
S11323300E945C0F20E331E0CE0101967C0109E3A9
S113234011E0DC01F90181918D93E017F107D9F7D0
S1132350181419041A041B04C4F56E019AE0C90E7A
S1132360D11C4E2C5F2C622E732E0E945C0FE42D28
S1132370F52DA62DB72D8E2F8E199D91992319F029
S11323809081992319F13196EC15FD05A1F7A42D3F
S1132390B52DE62DF72D81918D93E017F107D9F72F
S11323A02FE788E391E0215080409040E1F700C09E
S11323B0000027E3821A9108A108B108181419042F
S11323C01A041B0494F28AE001C08AE029960FB62D
S11323D0F894DEBF0FBECDBFDF91CF911F910F9157
S11323E0FF90EF90DF90CF90BF90AF909F908F9031
S11323F07F906F905F904F900895209112013091DB
S11324001301E9E1F1E081E0DF0112979C91D90128
S1132410A90FB11D9C91DF0111974C91D901A40F13
S1132420B11D4C91941309C04081D901A40FB11D71
S11324304C91941302C0911105C08F5F339689307B
S113244019F780E008958F929F92BF92CF92DF9206
S1132450EF92FF920F931F93CF93DF93CDB7DEB725
S113246062970FB6F894DEBF0FBECDBFE0911201A4
S1132470F0911301CE0101964C017E019AE0E90E20
S1132480F11CAF01475F5F4F9701B4018191DB01FC
S11324908D93BD01D9018D939D01E417F507B1F723
S11324A00E94FD11811108C09E012D5E3F4FF7016E
S11324B01192E217F307E1F790E0FC01EE0FFF1F22
S11324C08E0F9F1FFC01EC5EFE4F8081AAE0B0E0FE
S11324D0AC0FBD1FA80FB11D1C928181AAE0B0E012
S11324E0AC0FBD1FA80FB11D1C928281EAE0F0E081
S11324F0EC0FFD1FE80FF11D108215E0BE2CCF2C50
S1132500F12C00E0D82CE92C34C02D91E09112017B
S1132510F0911301E80FF91F20830196893091058A
S1132520A1F70E94BD0EBFEF21EE84E0B150204020
S11325308040E1F700C00000AD2DBE2D8F2D902FFF
S11325402D91E0911201F0911301E80FF91F2083FE
S1132550019689309105A1F70E94BD0E9FEFA1EE6F
S1132560B4E09150A040B040E1F700C00000115029
S113257029F0AB2DBC2D8F2D902FC7CF62960FB6AF
S1132580F894DEBF0FBECDBFDF91CF911F910F91A5
S1132590FF90EF90DF90CF90BF909F908F90089521
S11325A0CF9380E090E0E0911201F0911301E80FE5
S11325B0F91F1082019689309105A9F70E94BD0E7A
S11325C0C0E060EC74ED81E090E00E947E118A30FE
S11325D018F00E94231220C0E0911201F09113011F
S11325E0E80FF11D9081992311F0C15010C0C0FF74
S11325F004C062E00E942F1103C061E00E942F1109
S11326000E94FD11882319F00E94231205C0CF5F98
S1132610C930B8F20E942312CF910895AF92BF92AD
S1132620DF92EF92FF920F931F93CF93DF9380E09B
S113263090E0E0911201F0911301E80FF91F10826C
S1132640019689309105A9F70E94BD0E60EC74EDE6
S113265081E090E00E947E11C82F8A3018F00E9419
S11326602312DEC0E0911201F0911301E80FF11D75
S113267080818111EBCF61E08C2F0E942F11D0E07B
S1132680FE01ED5CF24E849162E081500E942F11B4
S113269060EC74ED81E090E00E947E11082F8A3096
S11326A018F00E942312BCC0E0911201F0911301B2
S11326B0E80FF11D80818111EBCF61E0802F0E9432
S11326C02F11A02EB12CFE01EE0FFF1FEE0FFF1FE6
S11326D0EE0FFF1FEC0FFD1FEA0DFB1DEE51F34E35
S11326E0849162E081500E942F1160EC74ED81E0CE
S11326F090E00E947E11182F8A3018F00E94231255
S11327008FC0E0911201F0911301E80FF11D808157
S11327108111EBCF61E0812F0E942F11E12EF12C6A
S1132720F501EE0FFF1FEE0FFF1FEE0FFF1FEA0D67
S1132730FB1D21E52C9FC0012D9F900D1124E80F56
S1132740F91FEE0DFF1DE75FF54E849162E08150A5
S11327500E942F110E94FD11882319F00E94231258
S11327605FC060EC74ED81E090E00E947E11D82E91
S113277089E08D1518F40E94231252C0E0911201D1
S1132780F0911301ED0DF11D80818111EACF61E01B
S11327908D2D0E942F11C701880F991F880F991F33
S11327A0880F991FE80EF91E81E58A9DF0018B9D23
S11327B0F00D1124EE0DFF1DED0DF11D29ED32E09C
S11327C0C29FC001C39F900DD29F900D1124E80FAA
S11327D0F91FE859FF4F849162E081500E942F1144
S11327E00E94FD11882319F00E94231219C060EC85
S11327F074ED81E090E00E947E118A3018F00E940E
S113280023120EC0E0911201F0911301E80FF11DA3
S113281090819111ECCF61E00E942F110E9423124C
S1132820DF91CF911F910F91FF90EF90DF90BF90B8
S1132830AF9008950E943B100E94A410E12CF12C4B
S1132840C9E3D1E00F2EF3E0DF2EF02D0D2D11E0C2
S11328502E2D3F2DE0911201F0911301E20FF31F91
S113286010822F5F3F4F29303105A1F70B831D8361
S11328700E94BD0E60E177E280E090E00E947E114C
S1132880833039F460E08D2D0E942F110E94D01204
S1132890DFCF8530E9F660E00E942F110E940E130D
S10928A0D7CFF894FFCF2E
S11328A696006400960096006400960096009600D2
S11328B6960039010000000001020304050607081A
S11328C600030601040702050800040802040600C2
S9030000FC
